:020000040800F2
:1000000000000120F51B0008B9040008BB0400082B
:10001000BD040008BF040008C1040008000000007F
:10002000000000000000000000000000C304000801
:10003000C504000800000000C7040008C904000847
:100040003D1C00083D1C00083D1C00083D1C00082C
:100050003D1C00083D1C00083D1C00083D1C00081C
:100060003D1C00083D1C00083D1C00083D1C00080C
:100070003D1C00083D1C00083D1C00083D1C0008FC
:100080003D1C00083D1C00083D1C00083D1C0008EC
:100090003D1C00083D1C00083D1C00083D1C0008DC
:1000A0003D1C00083D1C00083D1C00083D1C0008CC
:1000B0003D1C00083D1C00083D1C00083D1C0008BC
:1000C0003D1C00083D1C00083D1C00083D1C0008AC
:1000D0003D1C00083D1C00083D1C00083D1C00089C
:1000E0003D1C00083D1C00083D1C00083D1C00088C
:1000F000D10400083D1C00083D1C00083D1C000800
:100100003D1C00083D1C00083D1C00083D1C00086B
:100110003D1C00083D1C00083D1C00083D1C00085B
:100120003D1C00083D1C00083D1C00083D1C00084B
:1001300000000000000000000000000000000000BF
:1001400000000000000000000000000000000000AF
:10015000000000000000000000000000000000009F
:10016000000000000000000000000000000000008F
:10017000000000000000000000000000000000007F
:10018000000000000000000000000000000000006F
:10019000000000000000000000000000000000005F
:1001A000000000000000000000000000000000004F
:1001B000000000000000000000000000000000003F
:1001C000000000000000000000000000000000002F
:1001D000000000000000000000000000000000001F
:0401E0005FF8E0F1F3
:1001E40010B5054C237833B9044B13B10448AFF36D
:1001F40000800123237010BDCC0500200000000006
:100204000C1E000808B5034B1BB103490348AFF3A8
:10021400008008BD00000000D00500200C1E00086E
:1002240084B0134B9A6942F004029A619A6902F00D
:1002340004020092009A9A6942F008029A619A694B
:1002440002F008020192019A9A6942F040029A610E
:100254009A6902F040020292029A9A6942F01002EC
:100264009A619B6903F010030393039B04B07047E6
:100274000010024010B43A4B1A8892B2394B33F84A
:100284001240394A1460394A128892B233F8121073
:10029400374A1160374A128892B233F81230364A1C
:1002A40013608B2C43DC304A8C2414608B2947DC8C
:1002B4002F4A8C2111608B2B4BDC2F4B8C221A6024
:1002C4000368294A12885A630368294A12889A6380
:1002D4000368294A1288DA63214A13889BB20133DE
:1002E4009BB2138021490B889BB201339BB20B80D4
:1002F40020490B889BB201339BB20B8013889BB2BD
:10030400C72B02D9134600221A80184B1B889BB2B4
:10031400C72B02D9154B00221A80164B1B889BB29F
:10032400C72B02D9134B00221A8010BC704741F628
:1003340094329442BADD0C4A41F694341460B5E721
:1003440041F694329142B6DD094A41F69431116086
:10035400B1E741F694329342B2DD074B1A60AFE73E
:10036400F405002000000020E80500209001002092
:10037400EC05002092010020F005002072B6FEE793
:1003840000B591B02822002106A801F07BFC0023CF
:1003940001930293039304930593012206924FF46D
:1003A400803307930A9202220D920E934FF4E013C6
:1003B4000F9306A800F032FC80B90F2301930221A9
:1003C4000291002303934FF480620492059301A8E1
:1003D40000F064FE20B911B05DF804FBFFF7CEFF16
:1003E400FFF7CCFF08B500F053FAFFF7C9FFFFF79A
:1003F40017FF00F019F900F09FF91B4C204600F09C
:10040400C5FF0021204601F08BFA0021204601F0AF
:1004140011FB0421204601F083FA0421204601F057
:1004240009FB0821204601F07BFA0821204601F04F
:1004340001FB0E4C0021204601F072FA00212046F7
:1004440001F0F8FA0421204601F06AFA042120465A
:1004540001F0F0FA0821204601F062FA0821204652
:1004640001F0E8FAFEE700BF40060020F80500208E
:1004740082B00E4B9A6942F001029A619A6902F0C5
:1004840001020092009ADA6942F08052DA61DB6973
:1004940003F080530193019B054A536823F0E06302
:1004A40043F00073536002B0704700BF0010024075
:1004B40000000140FEE7FEE7FEE7FEE7FEE77047C7
:1004C4007047704708B500F0F5F908BD08B5024853
:1004D40000F09DFF08BD00BF4006002070470000EB
:1004E40000B583B00368134A934205D0124A93427D
:1004F4000DD003B05DF804FB104B9A6942F400621E
:100504009A619B6903F400630093009BF1E70B4B32
:100514009A6942F400529A619B6903F4005301936F
:10052400019B002201212C2000F0E8F92C2000F08E
:100534001DFADEE7002C01400034014000100240A7
:1005440030B589B000230493059306930793036899
:100554002D4A934204D02D4A93421ED009B030BD97
:100564002B4B9A6942F040029A619B6903F0400365
:100574000093009B4FF47C530493022305930323BD
:10058400079304A9234800F013FA234A536843F05D
:10059400E06343F0C0035360E0E71D4B9A6942F007
:1005A40004029A619A6902F004020192019A9A691A
:1005B40042F008029A619A6902F008020292029AD1
:1005C4009A6942F010029A619B6903F01003039345
:1005D400039B80230493022505950324079404A90F
:1005E4000E4800F0E5F904940595079404A90C4815
:1005F40000F0DEF94FF4E07304930595079404A921
:10060400084800F0D5F9A9E7002C01400034014066
:1006140000100240001801400000014000080140A1
:10062400000C01400010014010B596B00024129453
:100634001394149415941094119409940A940B949B
:100644000C940D940E940F942022214601A801F0DD
:1006540019FB3748374B03604723436084606423A6
:10066400C360046144618023836100F0D9FF0028E2
:1006740045D14FF48053129312A92D4801F0D4F8B8
:1006840000283FD12A4800F0F7FF00283DD100237D
:100694001093119310A9264801F040FA002837D18D
:1006A4006023099300220A920B920C920D920E92EF
:1006B4000F9209A91E4801F043F860BB042209A95E
:1006C4001B4801F03DF848BB082209A9184801F06D
:1006D40037F830BB0023019302930393482204921A
:1006E40005934FF400520692089301A9104801F0B3
:1006F40053FAC8B90E48FFF723FF16B010BDFFF731
:100704003DFEB6E7FFF73AFEBCE7FFF737FEBEE76C
:10071400FFF734FEC4E7FFF731FECFE7FFF72EFE05
:10072400D2E7FFF72BFED5E7FFF728FEE2E700BF8D
:10073400F8050020002C014010B596B00024129456
:100744001394149415941094119409940A940B948A
:100754000C940D940E940F942022214601A801F0CC
:1007640091FA3648364B0360446084604FF4E15399
:10077400C36004614461846100F052FF002845D1E4
:100784004FF48053129312A92C4801F04DF800281D
:100794003FD12A4800F070FF00283DD10023109378
:1007A400119310A9254801F0B9F9002837D1602325
:1007B400099300220A920B920C920D920E920F92C0
:1007C40009A91E4800F0BCFF60BB042209A91B480C
:1007D40000F0B6FF48BB082209A9184800F0B0FF92
:1007E40030BB0023019302930393482204920593A0
:1007F4004FF400520692089301A9104801F0CCF975
:10080400C8B90E48FFF79CFE16B010BDFFF7B6FD41
:10081400B6E7FFF7B3FDBCE7FFF7B0FDBEE7FFF7B0
:10082400ADFDC4E7FFF7AAFDCFE7FFF7A7FDD2E7C9
:10083400FFF7A4FDD5E7FFF7A1FDE2E7400600209E
:100844000034014010B504460E4B18784FF47A7307
:10085400B3FBF0F30C4A1068B0FBF3F000F094F82B
:1008640068B90F2C01D901200AE0002221464FF07B
:10087400FF3000F043F8054B1C60002000E001202D
:1008840010BD00BF98010020940100209C010020AD
:1008940008B5074A136843F010031360032000F0FF
:1008A4001BF80020FFF7CEFFFFF7E2FD002008BD94
:1008B40000200240034A1168034B1B780B44136069
:1008C400704700BF8806002098010020014B18687B
:1008D400704700BF88060020074AD36823F4E0630A
:1008E4001B041B0C000200F4E060034343F0BF63ED
:1008F40043F40033D360704700ED00E000B5194BBA
:10090400DB68C3F30223C3F1070CBCF1040F28BF57
:100914004FF0040C03F1040EBEF1060F18D9033B8B
:100924004FF0FF3E0EFA0CFC21EA0C0199400EFA3E
:1009340003F322EA0303194300280BDB0901C9B2BC
:1009440000F1604000F5614080F800135DF804FB9D
:100954000023E5E700F00F000901C9B2024B195466
:10096400F4E700BF00ED00E014ED00E0002807DB31
:1009740000F01F02400901239340024A42F820304C
:10098400704700BF00E100E00138B0F1807F0BD276
:100994004FF0E0235861054AF02182F8231000202B
:1009A400986107221A6170470120704700ED00E04A
:1009B40070B582B00024A446B0E0874DAA4210D09E
:1009C40007D9864DAA420CD005F58035AA4208D035
:1009D40013E0A5F58015AA4203D005F57025AA42B7
:1009E40007D18A68002A62D0012A5BD043610824B7
:1009F40003E0A5F58015AA42F3D0BEF1FF0F58D845
:100A04000646BEF1FF0F56D84FEA8C0233680F2515
:100A1400954023EA050304FA02F2134333604B685A
:100A240013F0805F78D06E4B9A6942F001029A61AC
:100A34009B6903F001030193019B4FEA9C02951CFF
:100A4400684B53F825600CF003039D000F23AB4063
:100A540026EA0306644B984233D003F58063984238
:100A640000F0988003F58063984200F0958003F5C8
:100A74008063984200F0928003F58063984200F00E
:100A84008F8003F58063984219D006231AE0CC685E
:100A9400B3E7CC680434B0E7CC680834ADE7CC687D
:100AA4000C34AAE703610824A7E70024A5E704247B
:100AB400A3E7061DA5E7ACF108029200A6E705230B
:100AC40000E00023AB4033430232464D45F8223068
:100AD4004B6813F4803F65D0444A136843EA0E031D
:100AE40013604B6813F4003F62D0404A536843EAF2
:100AF4000E0353604B6813F4801F5FD03B4A936826
:100B040043EA0E0393604B6813F4001F5CD0374A2A
:100B1400D36843EA0E03D3600CF1010C0A6832FA7D
:100B24000CF357D0012303FA0CF302EA030E33EA61
:100B34000202F1D14A68122A3FF63FAF122A3FF669
:100B44005CAF01A555F822F0E7090008930A0008F4
:100B54009D0A0008AF0A0008FF090008FF09000801
:100B6400FF090008FF090008FF090008FF09000841
:100B7400FF090008FF090008FF090008FF09000831
:100B8400FF090008FF090008FF090008970A000888
:100B9400A30A0008012395E7022393E7032391E7BF
:100BA40004238FE7114A136823EA0E03136098E7BE
:100BB4000E4A536823EA0E0353609BE70B4A93687B
:100BC40023EA0E0393609EE7084AD36823EA0E03E0
:100BD400D360A1E702B070BD000022100000311004
:100BE40000100240000001400008014000040140E0
:100BF40082B0084B1B68084AA2FB03235B0A00FB74
:100C040003F3019300BF019B5A1E0192002BF9D1FB
:100C140002B0704794010020D34D6210002800F008
:100C2400F18170B582B00446036813F0010F2CD033
:100C3400994B5B6803F00C03042B1DD0964B5B6847
:100C440003F00C03082B12D06368B3F5803F41D046
:100C5400002B55D103F1804303F504331A6822F4C1
:100C640080321A601A6822F480221A6037E08A4BB4
:100C74005B6813F4803FE7D0874B1B6813F4003F95
:100C840003D06368002B00F0BF81236813F0020FC8
:100C940075D0814B5B6813F00C0F5FD07E4B5B68A3
:100CA40003F00C03082B54D02369002B00F08A8036
:100CB4007A4B01221A60FFF709FE0546764B1B6842
:100CC40013F0020F75D1FFF701FE401B0228F5D97E
:100CD40003209EE1704A136843F480331360636811
:100CE40043B3FFF7F3FD05466B4B1B6813F4003F5A
:100CF400CBD1FFF7EBFD401B6428F5D9032088E135
:100D0400B3F5A02F09D0644B1A6822F480321A601C
:100D14001A6822F480221A60E1E703F18043A3F504
:100D24003C331A6842F480221A601A6842F4803212
:100D34001A60D4E7FFF7CAFD0546574B1B6813F446
:100D4400003FA2D0FFF7C2FD401B6428F5D9032061
:100D54005FE1514B5B6813F4803FA5D14E4B1B6898
:100D640013F0020F03D02369012B40F04F814A4A4C
:100D7400136823F0F803616943EAC103136023682D
:100D840013F0080F33D0A369002B5CD0434B01222E
:100D9400C3F88024FFF79AFD05463F4B5B6A13F0C6
:100DA400020F21D1FFF792FD401B0228F5D9032041
:100DB4002FE1394A136823F0F803616943EAC10358
:100DC4001360DCE7354B00221A60FFF77FFD054610
:100DD400314B1B6813F0020FD1D0FFF777FD401B96
:100DE4000228F5D9032014E10120FFF701FF23684D
:100DF40013F0040F00F09680274BDB6913F0805F3B
:100E040034D1254BDA6942F08052DA61DB6903F0B0
:100E140080530193019B0125214B1B6813F4807FB0
:100E240026D0E368012B3DD0002B53D103F180433E
:100E340003F504331A6A22F001021A621A6A22F0D4
:100E440004021A6233E0154B0022C3F88024FFF732
:100E54003DFD0546104B5B6A13F0020FC7D0FFF748
:100E640035FD401B0228F5D90320D2E00025D3E745
:100E74000B4A136843F480731360FFF727FD06469B
:100E8400074B1B6813F4807FCBD1FFF71FFD801B3A
:100E94006428F5D90320BCE000100240000042425F
:100EA400007000405F4A136A43F001031362E36871
:100EB40033B3FFF70BFD06465A4B1B6A13F0020FC0
:100EC4002FD1FFF703FD801B41F288339842F3D9F9
:100ED40003209EE0052B09D0524B1A6A22F001022E
:100EE4001A621A6A22F004021A62E0E74D4B1A6A87
:100EF40042F004021A621A6A42F001021A62D6E748
:100F0400FFF7E4FC0646474B1B6A13F0020F08D0B8
:100F1400FFF7DCFC801B41F288339842F3D90320AD
:100F240077E0E5B9E369002B72D03E4A526802F0DB
:100F34000C02082A56D0022B17D03B4B00221A660B
:100F4400FFF7C4FC0446374B1B6813F0007F47D0FF
:100F5400FFF7BCFC001B0228F5D9032059E0314AF5
:100F6400D36923F08053D361DCE72F4B00221A6648
:100F7400FFF7ACFC05462B4B1B6813F0007F06D033
:100F8400FFF7A4FC401B0228F5D9032041E0236AA3
:100F9400B3F5803F1AD023494B6823F47413226AB3
:100FA400606A024313434B601F4B01221A66FFF72A
:100FB4008DFC04461B4B1B6813F0007F0ED1FFF71A
:100FC40085FC001B0228F5D9032022E0154A53684A
:100FD40023F40033A1680B435360DCE7002018E0DE
:100FE400002016E0012B16D00E4B5B6803F4803111
:100FF400226A914211D103F47013626A93420ED1B2
:10100400002006E001207047012002E0012000E0FA
:10101400002002B070BD0120FBE70120F9E70120A8
:10102400F7E700BF001002400000424286B0174BB1
:101034000FCB0DF1180C0CE90F0040F20123ADF8B1
:101044000430134B5B6803F00C02082A02D01148E9
:1010540006B07047C3F3834218326A4412F8100C86
:1010640013F4803F0DD00A4B5B68C3F3404318333D
:101074006B4413F8143C074A02FB00F0B0FBF3F096
:10108400E6E7054B03FB00F0E2E700BF341E00086F
:101094000010024000127A0000093D00002800F010
:1010A400A08070B50D460446524B1B6803F007033D
:1010B4008B420BD24F4A136823F007030B43136090
:1010C400136803F007038B4240F08D80236813F00C
:1010D400020F17D013F0040F04D0474A536843F4A7
:1010E400E0635360236813F0080F04D0424A536846
:1010F40043F460535360404A536823F0F003A168FB
:101104000B435360236813F0010F31D06368012B44
:1011140020D0022B25D0384A126812F0020F64D076
:1011240035494A6822F0030213434B60FFF7CEFBB4
:101134000646314B5B6803F00C036268B3EB820F25
:1011440016D0FFF7C3FB801B41F288339842F0D9D5
:10115400032045E0284A126812F4003FE0D1012040
:101164003EE0254A126812F0007FD9D1012037E011
:10117400204B1B6803F00703AB420AD91D4A1368CE
:1011840023F007032B431360136803F00703AB42F8
:101194002DD1236813F0040F06D0174A536823F4A3
:1011A400E063E1680B435360236813F0080F07D032
:1011B400114A536823F46053216943EAC10353601D
:1011C400FFF734FF0C4B5B68C3F303130B4AD35C88
:1011D400D8400B4B18600B4B1868FFF733FB00200B
:1011E40070BD012070470120FAE70120F8E70120D3
:1011F400F6E700BF0020024000100240241E000851
:10120400940100209C01002030B4036A23F0010300
:101214000362036A4268846924F073040D682C43F2
:1012240023F0020C8B6843EA0C03104DA84203D050
:1012340005F50065A84205D123F00803CD682B43CA
:1012440023F00403094DA84203D005F50065A84224
:1012540005D122F440724D692A438D692A434260C4
:1012640084614A684263036230BC7047002C0140C9
:1012740030B4036A23F480730362036A4268C46966
:1012840024F0730C0C6844EA0C0523F400738C6896
:1012940043EA0423114CA04203D004F50064A042A5
:1012A40006D123F40063CC6843EA042323F4806367
:1012B4000A4CA04203D004F50064A04207D122F4F2
:1012C40040524C6942EA04128C6942EA04124260B8
:1012D400C5614A68C263036230BC7047002C014098
:1012E40030B4036A23F480530362036A4468C26916
:1012F40022F4E6420D6842EA052223F400538D6885
:1013040043EA0533094DA84203D005F50065A84218
:1013140004D124F480444D6944EA85144460C261D4
:101324004A680264036230BC704700BF002C01406D
:1013340010B4036A046A24F001040462846924F08A
:10134400F00C4CEA021223F00A030B43826103629D
:1013540010BC704710B4046A24F010040462846959
:10136400036A24F4704C4CEA023223F0A00343EAEB
:1013740001138261036210BC7047836823F0700319
:101384000B4343F0070383607047000090F83D303F
:10139400DBB2012B2FD1022380F83D300268D368E1
:1013A40043F00103D3600368154A934218D002F551
:1013B4000062934214D0B3F1804F11D0A2F5983259
:1013C40093420DD002F58062934209D002F5806207
:1013D400934205D01A6842F001021A600020704757
:1013E4009A6802F00702062A07D01A6842F001023E
:1013F4001A6000207047012070470020704700BF2A
:10140400002C01407047704770477047704710B513
:10141400044603681A6912F0020F11D0DA6812F058
:10142400020F0DD06FF002021A61012303770368E3
:101434009B6913F0030F70D0FFF7E6FF00232377B7
:1014440023681A6912F0040F12D0DA6812F0040F3C
:101454000ED06FF004021A610223237723689B697C
:1014640013F4407F5FD02046FFF7CEFF002323779D
:1014740023681A6912F0080F12D0DA6812F0080F04
:101484000ED06FF008021A61042323772368DB6906
:1014940013F0030F4ED02046FFF7B6FF0023237747
:1014A40023681A6912F0100F12D0DA6812F0100FC4
:1014B4000ED06FF010021A61082323772368DB69CA
:1014C40013F4407F3DD02046FFF79EFF002323778F
:1014D40023681A6912F0010F03D0DA6812F0010FC1
:1014E40036D123681A6912F0800F03D0DA6812F03B
:1014F400800F34D123681A6912F0400F03D0DA68E0
:1015040012F0400F32D123681A6912F0200F03D071
:10151400DA6812F0200F30D110BDFFF774FF2046B7
:10152400FFF773FF8AE72046FFF76DFF2046FFF7BA
:101534006CFF9BE72046FFF766FF2046FFF765FF39
:10154400ACE72046FFF75FFF2046FFF75EFFBDE7ED
:101554006FF001021A612046FEF78CFEC1E76FF0BE
:1015640080021A61204600F041FBC3E76FF040029D
:101574001A612046FFF74AFFC5E76FF020021A619F
:10158400204600F032FBC7E70368244A904212D099
:1015940002F5006290420ED0B0F1804F0BD0A2F55C
:1015A4009832904207D002F58062904203D002F54F
:1015B4008062904203D123F070034A681343174AB0
:1015C400904212D002F5006290420ED0B0F1804FEA
:1015D4000BD0A2F59832904207D002F58062904277
:1015E40003D002F58062904203D123F44073CA68A9
:1015F400134323F080034A69134303608B68C36277
:101604000B688362054B984203D003F5006398424C
:1016140001D10B690363012343617047002C01402E
:1016240040B310B5044690F83D30F3B1022384F87A
:101634003D30214651F8040BFFF7A6FF012384F83F
:10164400463084F83E3084F83F3084F8403084F8E3
:10165400413084F8423084F8433084F8443084F8CC
:10166400453084F83D30002010BD80F83C30FEF752
:1016740037FFDBE70120704740B310B5044690F80C
:101684003D30F3B1022384F83D30214651F8040B78
:10169400FFF77AFF012384F8463084F83E3084F85B
:1016A4003F3084F8403084F8413084F8423084F884
:1016B400433084F8443084F8453084F83D300020C9
:1016C40010BD80F83C30FFF79DFEDBE7012070473A
:1016D40030B4036A23F010030362036A4468826926
:1016E40022F4E6420D6842EA052223F020038D68C5
:1016F40043EA0513114DA84203D005F50065A8423D
:1017040006D123F08003CD6843EA051323F0400398
:101714000A4DA84203D005F50065A84207D124F478
:1017240040644D6944EA85048D6944EA8504446053
:1017340082614A688263036230BC7047002C0140B6
:1017440038B590F83C30012B60D004460D46012397
:1017540080F83C300C2A1AD8DFE802F0071919196E
:101764001D1919193119191944000068FFF74CFDA6
:101774002268936943F0080393612268936923F014
:10178400040393612268936929690B4393610020E0
:1017940084F83C0038BD0068FFF79AFF226893691B
:1017A40043F4006393612268936923F48063936133
:1017B40022689369296943EA01239361E7E7006892
:1017C400FFF756FD2268D36943F00803D36122680A
:1017D400D36923F00403D3612268D36929690B43D5
:1017E400D361D4E70068FFF77BFD2268D36943F433
:1017F4000063D3612268D36923F48063D3612268D0
:10180400D369296943EA0123D361C0E70220C1E710
:1018140010B4846824F47F4C42EA03220A4342EA67
:101824000C02826010BC704790F83C30012B66D0EB
:1018340010B50446012380F83C30022380F83D3083
:101844000268936823F47F4323F0770393600B6863
:10185400602B40D022D8402B47D00BD9502B0ED12F
:10186400CA6849680068FFF763FD50212068FFF7E4
:1018740084FD04E0202B0CD008D9302B09D001239F
:1018840084F83D30002084F83C0010BD0BB1102BCF
:10189400F5D119462068FFF770FDF0E7702B0ED0E4
:1018A400B3F5005FEBD1CB684A6889680068FFF73D
:1018B400AFFF2268936843F480439360DFE7CB680B
:1018C4004A6889680068FFF7A3FF2268936843F0B9
:1018D40077039360D3E7CA6849680068FFF73AFD65
:1018E40060212068FFF749FDC9E7CA6849680068B4
:1018F400FFF71EFD40212068FFF73FFDBFE70220F0
:10190400704701F01F01012303FA01FC036A23EA73
:101914000C030362036A02FA01F10B43036270478A
:1019240010B50446084600293AD194F83E30DBB29B
:10193400013B18BF0123002B66D1002849D10223A3
:1019440084F83E30012201462068FFF7DAFF23685D
:101954002F4A934203D002F50062934203D15A6C9A
:1019640042F400425A642368294A934241D002F562
:10197400006293423DD0B3F1804F3AD0A2F5983241
:10198400934236D002F58062934232D002F58062EF
:1019940093422ED01A6842F001021A60002032E00D
:1019A400042908D008290DD094F84130DBB2013B5A
:1019B40018BF0123BFE794F83F30DBB2013B18BFE7
:1019C4000123B8E794F84030DBB2013B18BF012390
:1019D400B1E7042805D0082807D0022384F8413051
:1019E400B0E7022384F83F30ACE7022384F84030A8
:1019F400A8E79A6802F00702062A07D01A6842F09C
:101A040001021A60002010BD0120FCE70020FAE763
:101A1400002C014001F01F01042303FA01FC036AB6
:101A240023EA0C030362036A02FA01F10B43036223
:101A34007047000010B504460846002933D194F8D5
:101A44004230DBB2013B18BF0123002B5FD10028D9
:101A540042D1022384F84230042201462068FFF771
:101A6400D9FF2268536C43F40043536423682A4A21
:101A7400934241D002F5006293423DD0B3F1804FCE
:101A84003AD0A2F59832934236D002F5806293425E
:101A940032D002F5806293422ED01A6842F00102DD
:101AA4001A60002032E0042908D008290DD094F8E7
:101AB4004530DBB2013B18BF0123C6E794F843303D
:101AC400DBB2013B18BF0123BFE794F84430DBB21B
:101AD400013B18BF0123B8E7042805D0082807D024
:101AE400022384F84530B7E7022384F84330B3E790
:101AF400022384F84430AFE79A6802F00702062A0A
:101B040007D01A6842F001021A60002010BD0120BB
:101B1400FCE70020FAE700BF002C014090F83C30BD
:101B2400012B34D010B4012380F83C30022380F818
:101B34003D3003685A689C6822F0700C0A6842EAD7
:101B44000C025A600368134A934212D002F50062F1
:101B540093420ED0B3F1804F0BD0A2F5983293424A
:101B640007D002F58062934203D002F5806293426B
:101B740004D124F080044A6814439C60012380F853
:101B84003D30002380F83C30184610BC70470220DA
:101B9400704700BF002C014090F83C30012B22D04C
:101BA400012380F83C30CB6823F440738A681343E4
:101BB40023F480634A68134323F400630A681343DD
:101BC40023F480530A69134323F400534A691343EB
:101BD40023F48043CA69134302685364002380F8E2
:101BE4003C30184670470220704770477047000029
:101BF4000C480D490D4A002302E0D458C450043364
:101C0400C4188C42F9D30A4A0A4C002301E0136039
:101C14000432A242FBD3FEF761FC00F00FF8FEF79A
:101C2400E1FB704700000020CC050020581E00088E
:101C3400CC05002090060020FEE7000070B50D4E94
:101C44000D4D761BB61006D0002455F8043B013424
:101C54009847A642F9D1094E094D00F0D5F8761BF4
:101C6400B61006D0002455F8043B01349847A64228
:101C7400F9D170BD4C1E00084C1E0008541E00080B
:101C84004C1E0008830730B548D0541E002A3FD0AC
:101C94000346CAB201E0013C3AD303F8012B9D0785
:101CA400F9D1032C2DD9CDB245EA05250F2C45EAEF
:101CB400054536D9A4F1100222F00F0C03F1200ED1
:101CC400E6444FEA121C03F1100242E9045542E9CA
:101CD400025510327245F8D10CF1010214F00C0FC8
:101CE40003EB021204F00F0C13D0ACF1040323F045
:101CF40003030433134442F8045B9342FBD10CF016
:101D040003042CB1CAB21C4403F8012B9C42FBD13E
:101D140030BD64461346002CF4D1F9E7034614465B
:101D2400BFE71A46A446E0E7024B13B1024800F0AD
:101D340005B87047000000004D1D0008002301464F
:101D44001A46184600F01AB838B5084B084D5B1B04
:101D54009C1007D0043B1D44013C55F804399847B6
:101D6400002CF9D1BDE8384000F054B8581E0008E2
:101D7400541E0008704700BF704700BF2DE9F047AC
:101D8400DFF87CA00646DAF8000098460F46914634
:101D9400FFF7F0FF1B4B1B68D3F8484124B3656879
:101DA4001F2D26DC5EB96B1C0235DAF80000636077
:101DB40044F82570FFF7E0FF0020BDE8F087012319
:101DC40004EB8501C1F88890D4F88821AB401A430C
:101DD400022EC4F88821C1F80881E4D1D4F88C21FA
:101DE4001343C4F88C31DEE703F5A674C3F8484105
:101DF400D5E7DAF80000FFF7BFFF4FF0FF30DCE76C
:101E0400C8050020481E0008F8B500BFF8BC08BC8F
:101E14009E467047F8B500BFF8BC08BC9E467047A4
:101E24000000000000000000010203040607080986
:101E340002030405060708090A0B0C0D0E0F101007
:081E440000000000A0010020D5
:081E4C002D1D00080902000829
:041E5400E50100089C
:101E5800490EBA0E2A0F9B0F0B107B10EA1058116F
:101E6800C61133129E1209137213D9134014A51404
:101E780008156915C81526168216DB163217871736
:101E8800D91729187718C1180A194F199119D11992
:101E98000E1A471A7E1AB11AE11A0E1B381B5E1B5E
:101EA800811BA01BBD1BD51BEA1BFC1B0A1C151C98
:101EB8001C1C201C201C1C1C151C0A1CFC1BEA1BBF
:101EC800D51BBD1BA01B811B5E1B381B0E1BE11AFB
:101ED800B11A7E1A471A0E1AD11991194F190A19EF
:101EE800C11877182918D91787173217DB168216E1
:101EF8002616C81569150815A5144014D9137213A8
:101F080009139E123312C6115811EA107B100B10D8
:101F18009B0F2A0FBA0E490ED70D660DF60C850CCD
:101F2800150CA50B360BC80A5A0AED0982091709C0
:101F3800AE084708E0077B071807B7065806FA05F2
:101F48009E054505EE0499044704F703A9035F03BA
:101F58001603D1028F024F021202D901A2016F01AA
:101F68003F011201E800C2009F00800063004B009F
:101F78003600240016000B000400000000000400D6
:101F88000B001600240036004B00630080009F0001
:101F9800C200E80012013F016F01A201D90112023B
:101FA8004F028F02D10216035F03A903F703470408
:101FB8009904EE0445059E05FA055806B706180764
:101FC8007B07E0074708AE0817098209ED095A0A96
:101FD800C80A360BA50B150C850CF60C660DD70D2B
:101FE800430085000024F4000100000010000000F8
:101FF800000000008C040020F40400205C05002090
:1020080000000000000000000000000000000000C8
:1020180000000000000000000000000000000000B8
:1020280000000000000000000000000000000000A8
:102038000000000000000000000000000000000098
:102048000000000000000000000000000000000088
:102058000000000000000000000000000000000078
:102068000000000000000000000000000000000068
:102078000000000000000000000000000000000058
:102088000000000000000000000000000000000048
:102098000000000000000000010000000000000037
:1020A8000E33CDAB34126DE6ECDE05000B000000FC
:1020B8000000000000000000000000000000000018
:1020C8000000000000000000000000000000000008
:1020D80000000000000000000000000000000000F8
:1020E80000000000000000000000000000000000E8
:0C24180000000000000000008C06002006
:0400000508001BF5DF
:00000001FF
